:020000040800F2
:100000008860002045010008B5280008F11C0008A0
:10001000B1280008C506000831560008000000009D
:10002000000000000000000000000000AF330008E6
:10003000190F0008000000005F2C0008154500089B
:100040005F0100085D2C00085F0100085F010008E7
:100050005F0100085F0100087D1500088115000898
:1000600099150008A7150008A91500085F010008E8
:100070005F0100085F0100085F0100085F010008E0
:100080005F0100085F0100085F0100085F010008D0
:10009000BD5500085F0100085F010008D915000880
:1000A0005F0100085F0100085F0100085F010008B0
:1000B000CD4600087D470008A94700085F010008F9
:1000C0005F0100085F0100085F0100085F01000890
:1000D0005F010008C14F0008195000085F010008C7
:1000E0007F1500085F010008BF5200085F0100088B
:1000F0005F0100085F0100085F0100085F01000860
:100100005F0100085F0100085F0100085F0100084F
:100110005F0100085F0100085F010008AB470008AD
:100120005F0100085F0100085F0100085F0100082F
:10013000DFF80CD000F08EF800480047C15D0008E1
:10014000886000200648804706480047FEE7FEE733
:10015000FEE7FEE7FEE7FEE7FEE7FEE7FEE7FEE777
:10016000314600083101000840EA01039B0703D033
:1001700009E008C9121F08C0042AFAD203E011F8E6
:10018000013B00F8013B521EF9D27047D2B201E0A8
:1001900000F8012B491EFBD270470022F6E710B58C
:1001A00004460846114602462046FFF7EFFF204668
:1001B00010BD2DE9F05F0546002092469B4688461B
:1001C0000646814640241BE02846414647462246D3
:1001D00000F02FF852465B46801A994110D3104622
:1001E0001946224600F016F82D1A67EB01084F4613
:1001F00022460120002100F00DF817EB00094E41C6
:10020000201EA4F10104DFDC484631462A4643465D
:10021000BDE8F09F202A04DB203A00FA02F100201A
:1002200070479140C2F1200320FA03F31943904034
:100230007047202A04DB203A21FA02F0002170479F
:1002400021FA02F3D040C2F120029140084319463E
:1002500070470000064C074D06E0E06840F00103DF
:1002600094E8070098471034AC42F6D3FFF764FFD8
:100270004CA301086CA3010870B501EB020410F84F
:10028000015B15F0070301D110F8013B2A1106D1DB
:1002900010F8012B03E010F8016B01F8016B5B1EF5
:1002A000F9D12B0705D40023521E0FD401F8013BCE
:1002B000FAE710F8013B02F10202A1EB030303E0AD
:1002C00013F8015B01F8015B521EF9D5A142D6D3A8
:1002D000002070BD21B1826842F00102826003E01B
:1002E000826822F0010282607047014600208A681D
:1002F00012F0040F01D0012000E0002070470146F9
:10030000C86C80B270470246002013680B4201D0CF
:10031000012000E000207047014600208A6812F0AA
:10032000080F01D0012000E00020704730B50246E0
:100330000020002350680F4C20400D790C6844EADF
:1003400005242043506090680B4C2040D1E90254B2
:100350002C434D7944EA450420439060D06A20F450
:1003600070000C7C641EE4B2234340EA0350D06268
:1003700030BD0000FFFEF0FFFDF7F1FFF0B50446D1
:100380000D4600200021092D11DDE068A5F10A06C7
:1003900006EB4607072606FA07F18843A5F10A0689
:1003A00006EB460603FA06F10843E0600CE020691C
:1003B00005EB4507072606FA07F1884305EB4506D6
:1003C00003FA06F108432061072A0FDA606B561E14
:1003D00006EB86071F2606FA07F18843561E06EB32
:1003E000860605FA06F10843606322E00D2A0FDA5B
:1003F000206BD61F06EB86071F2606FA07F18843F7
:10040000D61F06EB860605FA06F10843206310E0C6
:10041000E06AA2F10D0606EB86071F2606FA07F131
:100420008843A2F10D0606EB860605FA06F108439D
:10043000E062F0BD816841F008018160704721B140
:10044000826842F4A002826003E0826822F4A00283
:1004500082607047816841F004018160704700004C
:10046000F8B50024002519260E2700201B49086036
:1004700004F016F900BF2BE0092C04DB3521012024
:1004800002F058FE03E03321012002F053FE002069
:1004900003F064FB3D4613E01E2000F04FFD0020FA
:1004A0000F4908704CF2E0200F2301223F210090F9
:1004B000284602F0B9F9012009490870681CC5B244
:1004C000B542E9DB374606F10A00C6B2601CC4B289
:1004D0000A2CD1DB04F0DCF8F8BD0000080F002086
:1004E0001900002038B500240020524908704FF64A
:1004F000FF700523782219460090652000F047FD23
:100500004FF6FF700623782219460090652000F010
:100510003EFD4FF6FF701023652205210090104626
:1005200000F035FD4FF6FF70102366220521009084
:10053000104600F02CFD4FF6FF701023782219466C
:100540000090652000F023FD4FF6FF700F23782206
:1005500019460090652000F01AFD4FF6FF700C233D
:10056000782210210090104600F011FD4FF6FF7028
:100570000C2379220F210090104600F008FD4FF661
:10058000FF700923782206210090104600F0FFFC3E
:100590004FF6FF700923792206210090104600F0E3
:1005A000F6FC4FF6FF7008237B22194600907A2054
:1005B00000F0EDFC4FF6FF7009237B2219460090F6
:1005C0007A2000F0E4FC4FF6FF700A237B221946E4
:1005D00000907A2000F0DBFC4FF6FF700B237B22AB
:1005E000194600907A2000F0D2FC4FF6FF700C23E1
:1005F0007B22194600907A2000F0C9FC4FF6FF706C
:100600000D237B22194600907A2000F0C0FC68245C
:1006100009E04FF6FF700623032208210090A0B2E4
:1006200002F002F9241D782CF3DB01200149087047
:1006300038BD0000190000202DE9F04104460D46A8
:1006400016461F462A2005F04DF9C4F30F2005F089
:100650004DF9E0B205F04AF9C5F30F2005F046F96F
:10066000E8B205F043F92B2005F03CF9C6F30F2062
:1006700005F03CF9F0B205F039F9C7F30F2005F0A9
:1006800035F9F8B205F032F92C2005F02BF9BDE868
:10069000F08170B504460D462A2005F023F9A0B27A
:1006A00005F024F9E0B205F021F92B2005F01AF944
:1006B000A8B205F01BF9E8B205F018F92C2005F0F6
:1006C00011F970BD00BFFEE70146CAB20B1243EA42
:1006D0000220704710B5002411E18F48008800F017
:1006E0000F008E4908700846007800287ED18C489B
:1006F00000688C4908800846008800F030008A496C
:1007000008808848008800F4405086490880844961
:10071000096889B24BF6BF7201EA020080F400500A
:1007200080F0200040F4004141F080017C4A1160DB
:100730007948008810F0100F34D11046006880B25C
:1007400048F60F7108401146086001F039FC744901
:10075000096889B24BF6BF7201EA02007149098843
:1007600011F4805F01D080F480506E49098811F443
:10077000005F01D080F400506B49098811F0100F20
:1007800001D080F010006849098811F0200F01D0D5
:1007900080F0200081B241F4004141F08001604AC4
:1007A000116010BD5E48006884B214F4006F37D049
:1007B0005B480068C0F30E0048F68F710840584946
:1007C000086003F049F95649096889B24BF6BF72CF
:1007D00001EA02005349098811F4805F01D080F4D6
:1007E00080505049098811F4005F00E051E001D0C9
:1007F00080F400504C49098811F0100F01D080F0AE
:1008000010004949098811F0200F01D080F0200024
:1008100081B241F4004141F08001414A1160C0E7DA
:1008200014F4004F6BD03E480068C0F30E0048F649
:100830008F7108403A49086002F01CF9384909688C
:1008400089B24BF6BF7201EA02003649098811F4F9
:10085000805F01D080F480503249098811F4005F34
:1008600001D080F400503049098811F0100F01D0F8
:1008700080F010002C49098811F0200F01D080F081
:10088000200081B241F4004141F08001244A11600E
:1008900087E722480078224951F8200084B214F4F6
:1008A000004F14D01D48007851F82000C0F30E000E
:1008B00048F68F71084019490978194A42F8210011
:1008C00016490978491E194A52F82100804714F048
:1008D000800F14D011480078114951F8200080B2DF
:1008E00048F60F7108400D4909780D4A42F8210079
:1008F0000A490978491E0E4A52F8210080470848E3
:100900004430006880B20449088010F4004F7FF43E
:10091000E4AE00BF45E70000981100205C12002003
:10092000005C004070120020721200207C11002038
:1009300060110020024602F00F0080EA21330448D3
:1009400030F8130080EA011081B2084670470000B9
:100950002CA10108094951F8201011F4804F0CD046
:10096000064951F8201089B248F68F7211404CF2B6
:1009700080021143014A42F820107047005C004099
:10098000094951F8201011F0400F0CD0064951F8D8
:10099000201089B248F68F72114048F2C00211430C
:1009A000014A42F820107047005C0040064951F8A7
:1009B000201089B248F68F62114048F2800211433C
:1009C000014A42F820107047005C004070B50446B0
:1009D000002041F2747160540320491E60540020CD
:1009E000891E6054491E60540320891C60540025F0
:1009F0000BE005EB4501C1EBC51104EB01104FF411
:100A0000FA61FFF7CAFB681CC5B2032DF1DB70BDAC
:100A100070B505460C4641F27370205C08B90020A1
:100A200070BD29888A1C41F27071615C01EB410341
:100A3000C3EBC11104EB01102946FFF795FB41F20E
:100A40007070205C401C41F270716054C81C205CC6
:100A5000401EC91C6054C81E205C491E615C88424F
:100A600003DB002041F2707160540120D8E72DE9CA
:100A7000F047074688461446994600250BE07E5D00
:100A800030112146FFF756FF044621463046FFF756
:100A900051FF04466D1C4545F1D384EA0900BDE8C9
:100AA000F0872DE9FF4F85B00C4615461E4612AF64
:100AB00097E8800FADF8104003208DF81200482011
:100AC0008DF8130004A9059800F056FF314628461A
:100AD00000F032FF029700208DF80C008DF80D8099
:100AE0008DF80E9002A800F01DFE384600F000FEC2
:100AF0008DF804A08DF805B017988DF80600012038
:100B00008DF8070001A801F0D7FE09B0BDE8F08F0D
:100B10002DE9F0472848006800F110052E88264886
:100B20000068077AD6B9042F18D124480078012824
:100B30000FD100212248006880B2801C214A42F86F
:100B4000101030202049088000BF00201B49087089
:100B500003E0072710201C49088027E0AC88A64244
:100B600001D8042000E002200746B44200D93446F0
:100B7000A0B2A96888478046002001F003F88146AA
:100B8000A2B24946404604F055FDA1B2002002F051
:100B900079FE2888001B28806888204468803020DF
:100BA0000949088000020949088000BF0249096814
:100BB0000F72BDE8F087000060120020581200207C
:100BC000505C004000600040721200207012002053
:100BD0002DE9F0412848006800F110042688A0683B
:100BE000C0B1BEB1A588B54200D93546A8B2A1684A
:100BF000884707462088401B208060882844608002
:100C0000002000F09DFF8046AAB24146384602F01F
:100C100013F800BF208850B14FF4405017490880A6
:100C20000021084602F02EFE302015490880208859
:100C3000A188884204DB03200F490968087218E084
:100C40002088002804DD05200B490968087210E09F
:100C5000208870B9062008490968087200210948EF
:100C6000006880B2801C084A42F810103020044905
:100C70000880BDE8F08100006012002070120020A2
:100C800072120020505C0040006000402DE9F05FCF
:100C90009848006845780027BA46062D1AD195482D
:100CA0000068007810F07F0F13D1924909688878A6
:100CB000012803D190490968CF690AE0022803D1CD
:100CC0008D4909680F6A04E0032802D18A4909683E
:100CD0004F6A90E0002D60D1864800684088002867
:100CE0005BD184480068C088022856D181480068DA
:100CF0000079002851D17F480068007810F07F0FFC
:100D000005D17C480068808808B97C4F73E0794839
:100D10000068007800F07F00012810D1754909684B
:100D20004879754909688A6900219047002862D18D
:100D300070480068807A00285DD0704F5BE06D4895
:100D40000068007800F07F00022854D169480068EC
:100D5000407900F00F0667480068407900F070099C
:100D600064480068407910F0800F05D0644850F85E
:100D7000260000F0300804E0614850F8260000F436
:100D8000405860480078B04235D9B9F1000F32D1EF
:100D9000B8F1000F2FD0594F2DE0082D07D155483D
:100DA0000068007810F07F0F25D1574F23E00A2DFF
:100DB00021D150480068007800F07F0001281AD146
:100DC0004C480068807AB0B14A480068408890B9C1
:100DD00048480068007970B946480068C088012812
:100DE00009D1444909684879434909688A69002159
:100DF000904700B9454F57B13E480068A0F812A08F
:100E00003C48006887610020B84700240FE0394A59
:100E100012685078384A1268116988470446032CD2
:100E200005D10920334909680872BDE8F09F3148AF
:100E30000068008AA0F57F41FF3904D109202D49BF
:100E400009680872F1E7022C03D02A480068008A7A
:100E500020B90820274909680872E6E72548006894
:100E6000007810F0800F3BD022480068B0F806B040
:100E700020480068008A584504D91E490968A1F82D
:100E800010B023E01B480068008A1A490968C98825
:100E900088421BDA17480068008A1749096891F8E8
:100EA0002C10884203DA0020194908700EE011481E
:100EB0000068008A1049096891F82C1090FBF1F243
:100EC00001FB120010B90120114908700A4800689E
:100ED00090F82C10074800688182FFF719FE06E0A1
:100EE000032004490968087200030A49088000BF0A
:100EF0009BE70000601200206412002039410008C6
:100F0000005C0040A8110020BD4000080D41000811
:100F100058120020701200207047002104E000E009
:100F2000401E0028FCD1491CB1F5E15FF7DB70479A
:100F300000E0401E0028FCD1704700000349086013
:100F400000BF024909680029FBD170471C0000203E
:100F500006E042F2FF7100E0491E0029FCD1401E6C
:100F60000028F6D1704705E0662100E0491E0029FF
:100F7000FCD1401E0028F7D1704705E00A2100E0AF
:100F8000491E0029FCD1401E0028F7D170472DE9E9
:100F9000FF4F83B081464FF0000AD3469F230022C3
:100FA0007F211046FFF748FB0598A0EB090504993F
:100FB0000698461ACDF8049004980090002D01DDA3
:100FC000012705E00DB9002702E04FF0FF376D4221
:100FD000002E02DD4FF0010806E016B94FF00008C0
:100FE00002E04FF0FF387642B54201DD2C4600E0CA
:100FF0003446002002901AE0009881B2019880B235
:10100000109A01F035FCAA44B344A24504DDAAEBD2
:10101000040A019838440190A34504DDABEB040BAE
:101020000098404400900298401C80B20290611CDD
:1010300002988842E0DD07B0BDE8F08F2DE9F04767
:1010400080460C4615461E46DDF82090362004F0FA
:1010500049FCC02004F04AFCA019431E08EB05001F
:10106000411E22464046FFF7E7FA002704E019F840
:101070000700084908807F1C05FB06F0B7EB400F0E
:10108000F5D3362004F02EFCC02004F02FFCBDE880
:10109000F08700000000026010B501F045FB01F090
:1010A00015FB1420FFF739FF01F0A8FB112004F015
:1010B00019FC1420FFF731FF262004F013FC042054
:1010C00004F014FCB12004F00DFC082004F00EFC28
:1010D000102004F00BFCC02004F004FC022004F0FB
:1010E00005FC002004F002FCC12004F0FBFB022000
:1010F00004F0FCFBC52004F0F5FB4C2004F0F6FBEB
:101100005E2004F0F3FBC72004F0ECFB002004F0A9
:10111000EDFB3A2004F0E6FB052004F0E7FB2A2073
:1011200004F0E0FB002004F0E1FB002004F0DEFB13
:10113000002004F0DBFB7F2004F0D8FB2B2004F020
:10114000D1FB002004F0D2FB002004F0CFFB0020F4
:1011500004F0CCFB9F2004F0C9FB362004F0C2FB56
:10116000C02004F0C3FBB72004F0BCFB002004F057
:10117000BDFBF22004F0B6FB012004F0B7FBE02039
:1011800004F0B0FB3F2004F0B1FB222004F0AEFBE2
:10119000202004F0ABFB242004F0A8FB202004F066
:1011A000A5FB0C2004F0A2FB4E2004F09FFBB7200F
:1011B00004F09CFB3C2004F099FB192004F096FB02
:1011C000222004F093FB1E2004F090FB022004F088
:1011D0008DFB012004F08AFB002004F087FBE12056
:1011E00004F080FB002004F081FB1B2004F07EFB58
:1011F0001F2004F07BFB0B2004F078FB0F2004F091
:1012000075FB132004F072FB312004F06FFB842087
:1012100004F06CFB432004F069FB062004F066FB3D
:101220001D2004F063FB212004F060FB3D2004F04E
:101230005DFB3E2004F05AFB3F2004F057FB2920C1
:1012400004F050FB4FF4FA60FFF782FE10210448CF
:1012500000F064FC18B10821014800F06AFC10BDE0
:10126000000C01402DE9F0478046894692461F4612
:101270009F2300227F211046FFF7DEF938780028EF
:101280007ED089E03878802827DA3E78202E01D970
:10129000203E00E00026002419E0002513E004EBC6
:1012A00006104049095C80202841014209D009EB21
:1012B000040291B208EB050290B21FFA8AF201F023
:1012C000D7FA681CC5B2082DE9DB601CC4B2102C2B
:1012D000E3DB7F1C08F108085EE0002655E006EB22
:1012E0000610314911F81000397888424CD106EBCC
:1012F00006102D4901EB400040787978884243D1AF
:1013000000243CE0002517E006EB0610264901EB1F
:101310004000801C10F8140080212941084209D0A7
:1013200009EB040291B208EB050290B21FFA8AF2AF
:1013300001F09EFA681CC5B2082DE5DB00251AE015
:1013400006EB0610184901EB4000801C012101EB5F
:101350004401405C8021294108420AD009EB040283
:1013600091B208EB0502083290B21FFA8AF201F03E
:101370007FFA681CC5B2082DE2DB601CC4B200E035
:101380000EE0102CBEDB03E0761CB6F5FA7FA6D388
:1013900000BFBF1C08F11008387800287FF472AF36
:1013A000BDE8F0875A6400084A6A00082DE9F05F3A
:1013B0000746884693469A46DDF82890A0230022E7
:1013C00080211046FFF738F9ABE099F8000080283B
:1013D00033DA99F80060202E01D9203E00E0002683
:1013E000002422E000251CE004EB06105049085CB4
:1013F00080212941084208D008EB040291B27A19F1
:1014000090B25A4601F034FA09E0D34507D008EB10
:10141000040291B27A1990B2524601F029FA681C7E
:10142000C5B2082DE0DB601CC4B2102CDADB09F178
:10143000010907F1080087B273E0002668E006EBB7
:1014400006103C4911F8100099F8001088425ED14E
:1014500006EB0610374901EB4000407899F801107F
:10146000884254D100244FE0002520E006EB06100E
:10147000304901EB4000801C10F8141080202841F6
:10148000014208D008EB040291B27A1990B25A4690
:1014900001F0EEF909E0D34507D008EB040291B260
:1014A0007A1990B2524601F0E3F9681CC5B2082DD2
:1014B000DCDB002524E006EB06101E4901EB4000B2
:1014C000801C012101EB4401405C8021294108423C
:1014D00009D008EB040291B27A19083290B25A4648
:1014E00001F0C6F90AE0D34508D008EB040291B236
:1014F0007A19083290B2524601F0BAF9681CC5B2A6
:10150000082DD8DB601CC4B2102CADDB03E0761CC8
:10151000B6F5FA7F93D300BF09F1020907F1100075
:1015200087B299F8000000287FF44FAFBDE8F09F24
:101530005A6400084A6A00087047000010B50D4858
:10154000008818B90121880703F033F90A48094ACD
:1015500012888118032004F047F8C4B205480088B7
:1015600020440449088003F09FF9032002F064F945
:1015700010BD00004C1100207E33002070477047E2
:1015800010B501200349087002F094F8022000F021
:10159000AFF810BDF00E002010B501F0B5FD04202D
:1015A00000F0A6F810BD704710B50948007858B192
:1015B000102000F0A3F838B101200649087010206F
:1015C00000F096F800F0F8F8102000F091F810BD47
:1015D000220000203000002010B51748007810B31A
:1015E0004FF4807000F08AF848B1B420FFF7B0FCE7
:1015F0004FF4807000F082F808B101F035F84FF434
:10160000007000F07BF870B1B420FFF7A1FC4FF43C
:10161000007000F073F808B100F0E8FF0748008898
:10162000B430064908804FF4807000F061F84FF440
:10163000007000F05DF810BD220000202A0000209C
:101640000EB50421012000F077F910200190002050
:101650008DF808000C208DF8090001208DF80A0093
:1016600001A800F05FF80821032000F065F94FF4AD
:101670008070019000208DF808000C208DF8090082
:1016800001208DF80A0001A800F04CF80921032080
:1016900000F052F94FF40070019000208DF808001E
:1016A0000C208DF8090001208DF80A0001A800F037
:1016B00039F80A208DF8000002208DF80100012081
:1016C0008DF802008DF80300684601F0F5F8172048
:1016D0008DF8000002208DF8010000208DF8020036
:1016E00001208DF80300684601F0E6F80EBD000009
:1016F00001490860704700001404014001460020C1
:101700000022074B1B6803EA0102054B14331B68D8
:101710000B4202D00AB1012000E000207047000017
:1017200000040140002123498279002A3AD00A4668
:10173000126803689A430B461A600A1D1268036810
:101740009A430B1D1A60027911440A6803681A4310
:101750000A60184A0832126803689A43154B083326
:101760001A601A1D126803689A43124B0C331A60F0
:101770004279102A0ED11A1F126803681A430D4BC2
:1017800008331A601A1D126803681A43094B0C3398
:101790001A600DE00749427911440A6803681A4348
:1017A0000A6005E0027911440A6803689A430A60F6
:1017B00070470000000401401CB50421012000F026
:1017C000BBF81020009000208DF804000C208DF84C
:1017D000050000208DF806006846FFF7A3FF1CBD3A
:1017E0000EB50421012000F0A7F810200190002080
:1017F0008DF808000C208DF8090001208DF80A00F2
:1018000001A8FFF78FFF0A208DF8000002208DF855
:10181000010001208DF802008DF80300684601F0F8
:101820004BF80EBD51B14FF0204252F8202042F04B
:1018300001024FF0204343F8202009E04FF02042FE
:1018400052F82020034B1A404FF0204343F8202049
:1018500070470000FEFF0F00D0E901121143C2687B
:101860001143026911434269114382691143C269FC
:101870001143026A1143426A1143826A1143C26AE8
:101880001143026B11434FF02043026843F82210CA
:101890008168082908D11A46016852F8211041F0E0
:1018A0004001026843F82210416B0968426B52689C
:1018B00041EA0211426B926841EA0221426BD2680E
:1018C00041EA0241426B126941EA0251426B52699C
:1018D00041EA0261426B926911430268521C4FF067
:1018E000204343F82210C16AB1F5804F1AD1816BB1
:1018F0000968826B526841EA0211826B926841EA80
:101900000221826B126941EA0251826B526941EAFB
:101910000261826B92691143026803EB8202C2F892
:10192000041108E06FF070414FF02043026803EBB0
:101930008202C2F80411704730B500228B071C0FD9
:101940000F2303FA04F20B4B8C1053F8243093430B
:10195000084C8D1044F8253023468C1053F8243061
:101960008C07240F00FA04F42343024C8D1044F832
:10197000253030BD080001402DE9F0410246002528
:101980000026002000230024002791F803C00CF05B
:101990000F0591F803C01CF0100F03D091F802C09E
:1019A0004CEA0505B1F800C01CF0FF0F31D01468F7
:1019B00000202BE04FF0010C0CFA00F3B1F800C04E
:1019C0000CEA03069E4220D183004FF00F0C0CFA64
:1019D00003F7BC4305FA03FC4CEA040491F803C086
:1019E000BCF1280F06D14FF0010C0CFA00FCC2F834
:1019F00014C00AE091F803C0BCF1480F05D14FF0C4
:101A0000010C0CFA00FCC2F810C0401C0828D1D30D
:101A10001460B1F800C0BCF1FF0F34DD5468002041
:101A20002EE000F1080C4FF0010808FA0CF3B1F8B1
:101A300000C00CEA03069E4221D183004FF00F0C38
:101A40000CFA03F7BC4305FA03FC4CEA040491F8D2
:101A500003C0BCF1280F05D100F1080C08FA0CF8FE
:101A6000C2F8148091F803C0BCF1480F07D100F10F
:101A7000080C4FF0010808FA0CF8C2F81080401C5E
:101A80000828CED35460BDE8F0810000F0B50A46C6
:101A9000002300240021002500F00046B6F1004F8D
:101AA00002D11D4EF16901E01B4E7168C0F3034580
:101AB00083B200F44016B6F5401F08D121F07061E2
:101AC000154E766826F07066134F7E6012E000F4C3
:101AD0008016B6F5801F06D1032606FA05F4A14349
:101AE00041F0706106E0460D360103FA06F6B14397
:101AF00041F0706122B1460D360103FA06F631431A
:101B000000F00046B6F1004F02D1034EF16101E052
:101B1000014E7160F0BD000000000140024600204F
:101B200093680B4201D0012000E000207047416122
:101B30007047016170470AB1016100E0416170477F
:101B400001460548006880B200EBC100001D034A51
:101B500052F8100080B27047505C004000600040B6
:101B600001460648006880B200EBC100801D044AAF
:101B700052F81000C0F3090070470000505C0040AC
:101B80000060004001460548006880B200EBC100DB
:101B9000034A52F8100080B270470000505C0040C9
:101BA0000060004070B50A480468001D0568001D0B
:101BB0000668344454B108220649204600F038FA39
:101BC000042204491031284600F032FA70BD0000AA
:101BD000E8F7FF1F1E11002070B50024002500202B
:101BE0003149086002F05CFD01F0ACFC02F0B4F891
:101BF000C820FFF7A3F900BF11E00121084601F05A
:101C000099FA01F085FF81B2274802680068401CFC
:101C1000254B1860254820F81210601C84B2B4F5DA
:101C2000007FEADB02F044F901F076FC05224FF474
:101C300000711E4801F074FF00F03AF8B0F5FA7F29
:101C400002DA0025284670BD002414E0174830F859
:101C50001400B0F5FA7F04DA0020144921F81400CA
:101C600007E0124830F81400A0F5FA700F4921F887
:101C70001400601C84B2B4F5007FE7DB00240DE0A3
:101C80000A4830F8140038B90849601C31F81000CF
:101C9000002801DD254604E0601C84B2B4F5007F15
:101CA000EEDB00BF2846CEE7080F0020041400201A
:101CB0000021002200BF11E00B4830F811009042D3
:101CC00002DB094830F81120074830F8110020B92C
:101CD00006480078401E054B1870491CB1F5007F7E
:101CE000EADB90B27047000004140020F20A0020E2
:101CF00000BFFEE71FB54FF4E13000900020ADF8C3
:101D00000400ADF80600ADF80800ADF80C000C209A
:101D1000ADF80A006946094803F060FA012240F272
:101D20002551064803F034FA0121044803F0FAF97A
:101D30004021024803F0DEF91FBD000000440040CE
:101D400010B50121480401F06BF800F003F8FFF72B
:101D5000D1FF10BD08B526208DF8000003208DF8B6
:101D600001008DF8020001208DF80300684600F0A4
:101D7000A3FD08BD08B54FF44070ADF80000482041
:101D80008DF8030003208DF8020069460848FFF72C
:101D9000F3FD1020ADF8000048208DF8030003206B
:101DA0008DF8020069460348FFF7E6FD08BD000014
:101DB00000140140000C014010B540210D48FFF710
:101DC000B6FE1420FFF7D9F880210A48FFF7AFFECE
:101DD0001420FFF7D2F840210648FFF7AAFE14208E
:101DE000FFF7CBF840210348FFF7A1FE1420FFF7CF
:101DF000C4F810BD000C014010B540210D48FFF79C
:101E000096FE1420FFF7B9F880210A48FFF791FEEB
:101E10001420FFF7B2F840210648FFF78AFE14208D
:101E2000FFF7ABF840210348FFF781FE1420FFF7CE
:101E3000A4F810BD000C014070B580211248FFF7D6
:101E400078FE00251BE06006040E40210E48FFF7D7
:101E50006EFE1420FFF791F840210B48FFF769FE52
:101E60001420FFF78AF880210748FFF757FE10B1CA
:101E700044F0010401E024F00104681CC5B2082DFF
:101E8000E1DB204670BD0000000C014010B5802150
:101E90000C48FFF74EFE40210A48FFF74AFE142087
:101EA000FFF76BF880210748FFF741FE1420FFF78A
:101EB00064F880210348FFF73AFE1420FFF75DF82D
:101EC00010BD0000000C014010B540210D48FFF787
:101ED0002EFE1420FFF751F880210A48FFF727FE55
:101EE0001420FFF74AF840210648FFF722FE14208D
:101EF000FFF743F880210348FFF71BFE1420FFF78C
:101F00003CF810BD000C014010B540211248FFF70D
:101F10000EFE80211048FFF70CFE1420FFF72DF86D
:101F200040210D48FFF705FE002401E0601C84B24B
:101F300080210948FFF7F2FD18B14EF66020844277
:101F4000F4DB1420FFF719F840210348FFF7EFFDF9
:101F50001420FFF712F810BD000C014070B50446C4
:101F6000002500BF20E040211448FFF7E0FD1420C9
:101F7000FFF703F814F0800F04D080210F48FFF71B
:101F8000D8FD03E080210D48FFF7D1FD1420FEF7B6
:101F9000F4FF40210948FFF7CCFD1420FEF7EDFFC8
:101FA0006006040E681CC5B2082DDCDB4021034826
:101FB000FFF7BDFD1420FEF7E0FF70BD000C0140EF
:101FC00010B518480068047A022C01D0042C05D101
:101FD000FEF79EFD13480068047A1CE0062C19D118
:101FE00010480068407805280ED10E480068007837
:101FF00010F07F0F08D10B490968C87801F0A2FBE7
:1020000009490968086A804708490968886880475B
:10201000082400E00824034909680C7200F020FE3F
:1020200010BD0000601200206C120020641200201D
:1020300030B50B46002100BF16E00A24B4EB107F38
:1020400005D9302404EB107403F8114005E0412455
:1020500004EB10740A3C03F81140000100254C0009
:10206000641C1D554C1CE1B29142E6DB30BD000002
:1020700010B5044601200C49087000200B49087077
:1020800004200B4908800846008802F0F3FD012077
:102090000649087000BF074800780028FBD00120DF
:1020A0000549087010BD00006100002022000020DA
:1020B000781000205F0000206400002001463E48A8
:1020C000007830B1012821D002282DD003286FD10B
:1020D00056E03A48007810B1012814D103E00220FC
:1020E000374A107010E037480078801C344A10706E
:1020F0000020324A10700120334A1070314A1070AB
:102100002D4A107000E000BF00BF52E02B4800785D
:10211000012806D108202A4A10700120294A10708F
:1021200000E000BF00BF44E02448007810B101285F
:1021300023D114E023480078012805D123480078F2
:1021400010B10A201E4A10701E480078022805D1DE
:102150001E48007810B90B20194A10700EE00020BC
:10216000174A1070144A10700120164A1070164A4F
:1021700010700020114A107000E000BF00BF18E08E
:102180000E48007888B90F48007801280CD100204B
:102190000B4A1070084A107001200A4A10700A4A4F
:1021A00010700020054A107000BF00BF01E0FFE77B
:1021B00000BF00BF704700006100002062000020E7
:1021C00064000020600000205F0000204A09002019
:1021D00010B504460020094908700949087000F04C
:1021E0009DFD0420074908800846008802F030FD64
:1021F000022005490870012010BD000022000020C7
:1022000062000020660000206400002010B5044633
:1022100000200B4908700B490880012008800846FF
:10222000008802F00FFE01200549087000BF064833
:1022300000780028FBD001200449087010BD000080
:1022400022000020660000205F00002064000020C3
:1022500070B5044600BF094800780D2807DA2088C9
:10226000074A064B1B7852F8231088470546002082
:10227000208015F0010FEED1012070BD6400002018
:10228000F8A0010810B50446022016490870002085
:102290001549087015490870032015490870042075
:1022A000144908800846008802F0F6FC00F03EFD64
:1022B00001200D4908700CE00C200F4908700948F6
:1022C0000078012802D108700849087000200B49E5
:1022D0000870064800780028EED0002002490870F7
:1022E000012010BD6000002022000020F40E00201C
:1022F00061000020B0050020640000206200002082
:1023000010B504460320094908800846008802F0F9
:10231000D5FC0420064908700120064908704FF4D6
:10232000FA60FEF70BFE012010BD0000B205002090
:10233000640000202200002010B5044600200D4952
:10234000087008200C4908800846008802F0C8FC84
:102350004FF4FA60FEF7F2FD0120064908700020F4
:1023600006490870064908700649087001200649A8
:10237000087010BD22000020240700206400002007
:1023800062000020610000205F00002010B50446BC
:1023900000200F4908700F49087002200E4908708C
:1023A00008200E4908800846008802F0AFFC012092
:1023B0000749087000BF0A4800780028FBD0094888
:1023C000008810B1012008490870012010BD0000EC
:1023D000220000204A090020610000204C09002052
:1023E0005F000020480900206400002010B504466A
:1023F00001200D49087000200C49087002200C498A
:10240000087005200B4908800846008802F090FCFF
:1024100001200649087000BF074800780028FBD05B
:1024200001200649087010BD4A0900202200002042
:1024300061000020100F00205F00002064000020D9
:1024400010B5044600200D49087003200C4908808F
:102450000846008802F07EFC40F6B830FEF76EFDBC
:1024600001200649087000200649087006490870D6
:102470000649087001200649087010BD220000209E
:10248000A8080020640000206200002061000020F5
:102490005F00002010B5044600200C4908700C486D
:1024A000007850B10E200B4908800846008802F0E1
:1024B00067FC07200849087002E0042006490870FC
:1024C00040F6B830FEF73AFD012010BD2200002092
:1024D000F20A0020BC0100206400002010B5044670
:1024E00000200D49087001200C49087000F016FC0E
:1024F0000D200B4908800846008802F067FC012087
:10250000054908700749087000BF0748007800288F
:10251000FBD0012010BD000022000020610000203F
:10252000F00A0020640000205F00002070B505461E
:102530000024002012490870022012490880084631
:10254000008802F06DFCFFF747FB044602F0A8F894
:102550002146012000F0EEFD02F09AF80A480078CA
:1025600028B1FDF77DFF0A200849087002E00C2021
:10257000064908704FF4FA70FEF7E0FC012070BDC8
:10258000220000209C0E0020F20A0020640000209F
:1025900010B50F480078D0B10E48007848B101203E
:1025A0000D4908700D49087000200A490870FFF7AE
:1025B00017F90B480078082807D00A48007820B19E
:1025C0000948007808B102F073F8FFF709F910BD67
:1025D0002200002031000020620000205F00002067
:1025E0006400002018000020340000201A48007801
:1025F00030B1012818D0022817D0032829D11EE0B5
:102600000120164908700020154908701548007807
:10261000012805DD13480078401E1249087002E0C9
:1026200004201049087015E014E001200B490870DF
:1026300000200B49087001200A4908700AE00120B7
:1026400006490870002006490870012005490870F5
:1026500000E000BF00BF7047610000205F00002065
:1026600062000020600000201448007820B101289A
:1026700016D002281FD114E0012011490870002053
:102680001049087010480078042805DA0E480078D0
:10269000401C0D49087002E001200B4908700BE056
:1026A0000AE001200649087000200649087002204F
:1026B0000549087000E000BF00BF704761000020BE
:1026C0005F000020620000206000002000B597B08D
:1026D0000220019000200290052003900020049029
:1026E000059006904FF080500790002008900990C8
:1026F00008200A9010200B9000200C900E900F9054
:1027000010904FF48050119000201290139014906C
:1027100001A81590169008A8FFF79EF80121002047
:10272000FFF780F817B000BD08B510208DF8030042
:1027300003208DF8020042F20400ADF80000694663
:102740002A48FFF719F90220ADF800006946284829
:10275000FFF712F90820ADF8000069462548FFF799
:102760000BF903208DF8020018208DF803004CF2BD
:102770000340ADF8000069461C48FFF7FDF84FF430
:10278000F060ADF8000069461B48FFF7F5F810202F
:10279000ADF8000069461548FFF7EEF82020ADF8C7
:1027A000000069461148FFF7E7F88020ADF8000007
:1027B00069460E48FFF7E0F84FF40060ADF80000FE
:1027C00069460A48FFF7D8F810210848FFF7B1F921
:1027D00020210648FFF7ADF980210448FFF7A9F949
:1027E0004FF400510148FFF7A4F908BD001401405F
:1027F00000080140000C01400018014010B54FF4E2
:1028000000500849086042F21070FEF786FB4FF452
:1028100000500449091F086042F21070FEF77DFB6A
:1028200010BD0000141401402DE9F04707460C4686
:1028300015461E46DDF82080A019431E7819411E5A
:1028400022463846FDF7F8FE4FF0000908E04FEA4F
:102850002820064908800846A0F8008009F10109EF
:1028600005FB06F04845F2D8BDE8F087000002609D
:1028700070B505460E46144631462846FDF709FF59
:102880002012024908800846048070BD00000260E2
:102890000548817A19B10521044A116002E001213D
:1028A000024A11607047000068500020301200207A
:1028B00000BFFEE77047704770B5002100230F226C
:1028C000C4780CB3164C246804F4E064C4F5E064E6
:1028D000210AC1F10403CA40447804FA03F1847860
:1028E0001440214309010F4C0678A155047804F0E7
:1028F0001F050124AC4005786D114FF0E02606EB72
:102900008505C5F8004109E0047804F01F0501249D
:10291000AC40054D0678761145F8264070BD0000A4
:102920000CED00E000E400E080E100E0024901433A
:10293000024A1160704700000000FA050CED00E04B
:1029400070B502264648006844784548006800781B
:1029500010F07F0F44D1092C03D101F069FC064629
:102960005FE0052C14D13E480068C0787F280BDC5E
:102970003B480068807838B939480068808818B9C1
:1029800037480068807A08B1082565E0002648E0ED
:10299000032C0ED132480068C078012807D1304896
:1029A0000068808818B901F067FC064639E0022605
:1029B00037E0012C35D12A480068C07801280DD1B4
:1029C00027480068808848B925480068407A10F098
:1029D000200F03D001F0CAFA064622E0022620E0CA
:1029E0001F480068007800F07F00012805D10B2CFB
:1029F00017D101F0B3FC064613E0194800680078CF
:102A000000F07F0002280BD1012C03D101F0AEFAB7
:102A1000064606E0032C04D101F042FC064600E025
:102A200002264EB10F4800684169E0B28847064669
:102A3000032E01D109250FE00EB108250CE0062573
:102A400000210948006880B2801C084A42F8101032
:102A500030200749088000BF014909680D7270BD28
:102A60006012002064120020505C004000600040B2
:102A70007212002010B511480068047A022C01D0AF
:102A8000042C01D1082412E0032C01D0052C05D11F
:102A9000FEF79EF809480068047A08E0072C05D183
:102AA00007490968C8688047082400E008240349EA
:102AB00009680C7200F0D4F810BD0000601200200C
:102AC0006412002008B50121082000F0B9F9C020E7
:102AD000ADF8000003208DF8020014208DF80300EB
:102AE00069460648FEF748FF40210448FFF721F8F1
:102AF00080210248FFF71DF808BD0000000C0140CE
:102B00001CB50446002000900190FFF7BFF9A220F9
:102B1000FFF724FAFFF7F8F90220FFF71FFAFFF793
:102B2000F3F9FFF7B3F9A320FFF718FAFFF7ECF971
:102B3000FFF782F900F07F008DF80000FFF73CF905
:102B4000FFF77AF900F07F008DF80100FFF734F904
:102B5000FFF772F900F03F008DF80200FFF72CF943
:102B6000FFF76AF900F03F008DF80300FFF724F942
:102B7000FFF762F900F007008DF80400FFF71CF979
:102B8000FFF75AF900F01F008DF80500FFF714F960
:102B9000FFF752F98DF80600FFF72EF9FFF794F9C9
:102BA0009DF8000000F00F009DF80010090901EBEE
:102BB000810100EB4100A0719DF8010000F00F00C1
:102BC0009DF80110090901EB810100EB41006071E2
:102BD0009DF8020000F00F009DF80210090901EBBA
:102BE000810100EB410020719DF8030000F00F000F
:102BF0009DF80310090901EB810100EB4100E07031
:102C00009DF8050000F00F009DF80510090901EB83
:102C1000810100EB4100A0709DF80600000900EB67
:102C200080004FF4FA6101EB40009DF8061001F0BE
:102C30000F01084420801CBDF0B5561C7510064ECF
:102C400006EB41042B4604E080CC20F8017B401CBD
:102C50005B1E002BF8D1F0BD00600040704770474C
:102C600010B50D4890F82C10002000F0A1FD0B4885
:102C70000068007A082805D1400209490880102020
:102C80000849088005480068007A092801D1012018
:102C900010BD0020FCE70000AC11002060120020F5
:102CA000701200207212002010B5012002F05AFBB1
:102CB00001240B48046000200A4908800846008867
:102CC000074908600020091D08604FF4E0500549DD
:102CD00008800846008802490860002010BD0000F6
:102CE000405C00406A12002008B50820ADF80000E2
:102CF00003208DF8020010208DF803006946034878
:102D0000FEF73AFE00F00AF808BD00000008014096
:102D100010B5FFF7E9FF00F055F810BD10B5082118
:102D20000148FEF706FF10BD0008014010B508215C
:102D30000148FEF7FCFE10BD000801401FB54FF42E
:102D4000E13000900020ADF80400ADF80600ADF8C9
:102D50000800ADF80C000C20ADF80A0069460948DF
:102D600002F03CFA012240F22551064802F010FA26
:102D70000121044802F0D6F94021024802F0BAF9D4
:102D80001FBD00000038014008B54FF40070ADF8D9
:102D9000000018208DF8030003208DF8020069461A
:102DA0000748FEF7E9FD4FF48060ADF8000004200D
:102DB0008DF8030069460248FEF7DEFD08BD0000FD
:102DC0000008014010B50121880300F039F8FFF731
:102DD000DBFF00F003F8FFF7B1FF10BD08B52520B9
:102DE0008DF8000003208DF8010004208DF802000A
:102DF00001208DF803006846FFF75EFD08BD000066
:102E000029B1064A52690243044B5A6104E0034A5D
:102E100052698243014B5A61704700000010024022
:102E200029B1064AD2690243044BDA6104E0034A3D
:102E3000D2698243014BDA61704700000010024002
:102E400029B1064A92690243044B9A6104E0034A9D
:102E500092698243014B9A61704700000010024062
:102E600010B501210802FFF7CBFF01217D20FFF7FC
:102E7000E7FF01210148FEF709FE10BD0002300006
:102E800030B500210022002400232D4D6D6805F08F
:102E90000C0121B1042905D0082923D105E0294DD1
:102EA000056022E0274D05601FE0254D6D6805F4A3
:102EB0007012234D6D6805F48034022505EB9242B3
:102EC0001CB9214D554305600BE01D4D6D6815F48F
:102ED000003F03D01C4D5543056002E0194D55439A
:102EE000056002E0174D056000BF00BF144D6D681E
:102EF00005F0F0010909154D6B5C0568DD40456082
:102F00000F4D6D6805F4E061090A104D6B5C456872
:102F1000DD4085600A4D6D6805F46051C90A0B4DAE
:102F20006B5C4568DD40C560054D6D6805F440414A
:102F3000890B074D6B5CC568B5FBF3F5056130BDCA
:102F40000010024000127A0000093D000400002039
:102F5000140000200149086070470000D800424278
:102F600070B50546072D01D02E4805702D48007814
:102F700008284ED2DFE800F004111A202B384E4FFB
:102F80002948006828B900F053F806202549087040
:102F900002E005202349087041E000F049F80420D0
:102FA0002049087001202049086038E002201D49AE
:102FB00048700320087032E01A484078401E1949D2
:102FC00048700846407808B90420087027E0174880
:102FD000006884B244F010041448046005201149CC
:102FE00008700A2048701AE00E484078401E0D49CB
:102FF00048700846407858B90C48006884B224F0FC
:1030000010040A4804600620087000200649086081
:1030100005E000BF00BF06200249087000BF00BFE6
:1030200070BD00003C12002038120020405C0040BF
:1030300010B50748006884B224F004040448046012
:10304000FFF726FC4FF43F400149086010BD000027
:10305000405C004008B510208DF803004020ADF81A
:10306000000003208DF8020069460D48FEF784FC3D
:1030700010208DF803004FF47840ADF800000320D5
:103080008DF8020069460648FEF776FC4FF40041D1
:103090000348FEF74EFD40210148FEF74AFD08BDFA
:1030A000001801401FB54FF4C060FFF73FFC082037
:1030B0008DF80C0000208DF80D0001208DF80E0019
:1030C0008DF80F0003A8FFF7F7FB00210846FEF775
:1030D00033FC0420019000208DF8080008208DF8B2
:1030E000090001208DF80A0001A8FEF71BFB04204F
:1030F000ADF8000048208DF8030069460148FEF74E
:103100003BFC1FBD000801401CB5042000900020BE
:103110008DF8040008208DF8050000208DF80600C9
:103120006846FEF7FFFA1CBD10B5FFF793FFFFF7E7
:10313000B9FF10BD70B505460C4600200749086070
:1031400007E0284600F08EF804480068401C034958
:10315000086002480068A042F3D370BD3800002028
:1031600070B505460C4615B1012D52D128E02A480C
:1031700030F8140000F010024FF400612748FEF709
:10318000DAFC254830F8140000F020024FF480519A
:103190002248FEF7D0FC204830F8140000F040022E
:1031A0004FF400511D48FEF7C6FC1B4830F81400D0
:1031B00000F080024FF480411848FEF7BCFC29E083
:1031C000174830F8140000F010024FF40061134863
:1031D000FEF7B1FC124830F8140000F020024FF462
:1031E00080510E48FEF7A7FC0D4830F8140000F09F
:1031F00040024FF400510948FEF79DFC084830F8A2
:10320000140000F080024FF480410448FEF793FC64
:1032100000E000BF00BF70BD4E000020001801405C
:103220003E00002010B50D480078A8B101F038FA32
:1032300002E0012000F016F804210948FEF76EFCB8
:103240000028F6D04FF400710120FFF773FF002033
:103250000249087001F01CFA10BD00003C0000207B
:103260000008014070B50546002408E021462846C4
:10327000FFF776FFB420FDF776FE601CC4B2082C81
:10328000F4DB70BD10B500242848006805284BD138
:1032900027480088C8B927480078002844D0002073
:1032A000244908704FF480612348FCF776FF2348D7
:1032B0000288811C2048FCF757FF204800881C49E1
:1032C000088000201E4908802EE019480088402808
:1032D00003DA17480088C4B200E040241649184AAF
:1032E000128888182246C02102F0A4F92146012044
:1032F00000F0C8FA012000F0F1FA114800882044DB
:103300000F4908800A480088402808DC0020084946
:10331000088040F2D2710948FCF73FFF04E00448FE
:10332000008840380249088010BD0000301200209B
:103330004E1100200C1100207E370020AC2B002005
:103340005011002021B1028842F04002028004E0C6
:1033500002884FF6BF731A40028070470246002071
:1033600013890B4201D0012000E0002070478181C9
:10337000704710B50022028802F441520B884C8835
:1033800023438C882343CC8823430C8923434C89D3
:1033900023438C892343CC8923431A430280838BA4
:1033A0004FF2FF74234083830B8A038210BD704762
:1033B00010B502210748FEF7BAFB01210548FEF7C8
:1033C000B8FB20210448FEF7B4FB10210248FEF7A9
:1033D000AEFB10BD000C01400010014010B50221F1
:1033E0000748FEF7A4FB01210548FEF7A2FB2021B8
:1033F0000448FEF79CFB10210248FEF79AFB10BD23
:10340000000C01400010014010B502210748FEF7F2
:1034100090FB01210548FEF78AFB20210448FEF7B6
:1034200086FB10210248FEF784FB10BD000C014012
:103430000010014010B502210748FEF77AFB012178
:103440000548FEF774FB20210448FEF772FB1021AB
:103450000248FEF76CFB10BD000C0140001001405B
:1034600010B5044624B140210448FEF762FB03E096
:1034700040210248FEF75BFB10BD00000008014040
:1034800008B54020ADF8000010208DF8030003209F
:103490008DF8020069461D48FEF76EFA1020ADF85F
:1034A00000008DF8030003208DF8020069461848DB
:1034B000FEF762FA2020ADF8000010208DF803001E
:1034C00003208DF8020069461148FEF755FA0120E5
:1034D000ADF8000010208DF8030003208DF80200E5
:1034E00069460C48FEF748FA0220ADF800001020AB
:1034F0008DF8030003208DF8020069460548FEF7A9
:103500003BFA0120FFF7ACFF08BD000000080140B6
:1035100000100140000C014010B502210748FEF7E1
:10352000FDFA18B10020FFF79BFF06E000200449D8
:1035300008700021012000F01FF810BD00080140B4
:10354000F00E002010B500F0B5F87821002000F052
:1035500013F800F0BFF810BD10B500F0ABF8F02183
:10356000002000F009F800F0B5F810BD10B500F02B
:103570006FF8FFF785FF10BD70B504460D460120BA
:10358000FFF76EFF012C0AD102E0012000F018F8CD
:1035900002210A48FEF7C2FA0028F6D009E044B931
:1035A0003DB102E0002000F00BF82800A5F1010574
:1035B000F8D10020FFF754FF70BD00000008014063
:1035C00070B5054600243FE0012D1CD134B1012C1B
:1035D00009D0022C0CD0032C14D10EE0FFF7FEFE14
:1035E000601CC4B20EE0FFF7E3FE601CC4B209E049
:1035F000FFF720FF601CC4B204E0FFF705FF601C6A
:10360000C4B200BF1CE034B1012C09D0022C0CD094
:10361000032C14D10EE0FFF7CBFE601CC4B20EE009
:10362000FFF7DCFE601CC4B209E0FFF7EDFE601C92
:10363000C4B204E0FFF7FEFE601CC4B200BF00BFCE
:103640004FF48040FDF774FC042CBDDB70BD00001E
:103650001FB54FF4C060FFF769F907208DF80C0023
:1036600000208DF80D0001208DF80E008DF80F0060
:1036700003A8FFF721F901210520FEF75DF90220DB
:10368000019000208DF8080008208DF80900012025
:103690008DF80A0001A8FEF745F80220ADF80000F9
:1036A00048208DF8030069460148FEF765F91FBD03
:1036B000000801401CB50220009000208DF8040095
:1036C00008208DF8050000208DF806006846FEF7FA
:1036D00029F81CBD1CB50220009000208DF80400C4
:1036E00008208DF8050001208DF806006846FEF7D9
:1036F00019F81CBD10B50E480078C0B100F0D0FF1D
:10370000FFF70AFF4FF4FA70FDF718FCFFF724FFEC
:103710004FF4FA70FDF712FCFFF7FEFE4FF4FA705B
:10372000FDF70CFC00200249087000F0B1FF10BD4D
:10373000E80E00204FF6F8710140014A1160704711
:10374000505C004030B501460E4B1A78002011E065
:10375000C3B20D4C54F823309BB248F68F7423400B
:1037600048F280042343C4B22343C4B2064D45F853
:103770002430401C9042EBD341F08003024C4C3487
:10378000236030BDA8110020005C004010B54A1035
:103790005300054A126892B202EBC002121D034C9C
:1037A00044F8123010BD0000505C00400060004042
:1037B00010B502460F48006880B200EBC200801DC1
:1037C0000D4C04EB40033E290BDD481111F01F0F97
:1037D00001D1441EA0B24FF4004444EA80241C608E
:1037E00007E0481011F0010F01D0441CA0B2840280
:1037F0001C6010BD505C00400060004010B50D4BD7
:1038000053F820309BB24BF68F7403EA040211F494
:10381000805F01D082F4805211F4005F01D082F405
:10382000005242F4004343F08003024C44F820303D
:1038300010BD0000005C0040094A52F8202092B2FE
:103840004BF68F7302EA030181F4805181F4005139
:1038500041F4004242F08002014B43F820207047BF
:10386000005C004010B54A105300044A126892B23E
:1038700002EBC002024C44F8123010BD505C004014
:1038800000600040044A126892B202EBC002921C2F
:10389000024B43F812107047505C0040006000403B
:1038A00010B50D4B53F820309BB248F6BF7403EAB5
:1038B000040211F0100F01D082F0100211F0200F5D
:1038C00001D082F0200242F4004343F08003024C16
:1038D00044F8203010BD0000005C0040094A52F856
:1038E000202092B248F6BF7302EA030181F0100172
:1038F00081F0200141F4004242F08002014B43F884
:1039000020207047005C0040054A52F8202092B207
:1039100048F68F131A400A43014B43F820207047A2
:10392000005C004010B500F001F810BD002100203F
:103930002E4A126842F480322C4B1A6000BF2B4A88
:10394000126802F40030491C10B9B1F5A06FF6D12D
:10395000264A126812F4003F01D0012000E0002046
:10396000012842D1224A126842F01002204B1A600C
:103970001A46126822F003021A601A46126842F0D0
:1039800002021A60194A5268184B5A601A46526865
:103990005A601A46526842F480625A601A46526867
:1039A00022F47C125A601A46526842F4E8125A60B5
:1039B0001A46126842F080721A6000BF0B4A126801
:1039C00012F0007FFAD0094A526822F00302074B36
:1039D0005A601A46526842F002025A6000BF034A17
:1039E000526802F00C02082AF9D170470010024018
:1039F0000020024008B501210802FFF721FA4FF428
:103A00000060ADF8000003208DF8020010208DF852
:103A1000030069460948FDF7AFFF4FF48020FDF72A
:103A200067FE4FF480200649086008204871012095
:103A300088710846FDF776FE08BD000000200140B1
:103A40001411002010B50020FFF784FA0121C805E9
:103A5000FFF7E6F910BD000038B5012429480068D9
:103A600080B2001D284951F8100080B201EB4000DF
:103A7000009026480068007A092832D00098007823
:103A80002249096808700098401C0090009800784E
:103A90001E49096848700098401C0090009800EB8F
:103AA00044000090009931F8020B0091FCF70CFEE5
:103AB000164909684880009800EB4400009000997E
:103AC00031F8020B0091FCF7FFFD1049096888806E
:103AD000009800EB44000090009800880B490968AA
:103AE000C880012009490968087208480068C08830
:103AF00010B9FEF725FF01E0FDF7C8F8FFF7B0F8B1
:103B000038BD0000505C00400060004060120020A2
:103B100010B532210A2000F055F90446204610BDA8
:103B200070B503460C4600200021002500BF10E0C0
:103B3000002105E0461833F8166035444E1CB1B23A
:103B40009142F7DBB5FBF2F623F810600025461C26
:103B5000B0B2A61A8642EBDC70BD704770B5054660
:103B6000D82400F09DFD00F0F7F800F0ADF9022137
:103B70002148FDF7D3FFE0B100BF204800780028BE
:103B8000FBD000201D4908700121FFF7F5FCFFF76D
:103B9000BFFF1B490A880988491C194B198019491C
:103BA00021F812002000A4F101018CB2E5D100BF80
:103BB0000CE0FFF7B1FCFFF7ABFF11490A88098859
:103BC000491C0F4B19800F4921F8120000F070F9C1
:103BD00000F0D0F800F05CFD0A4909480088FFF7C2
:103BE000BCFF084B002219210C20FDF73BFB4FF4D2
:103BF000FA70FDF7A3F970BD00080140060F002020
:103C0000080F00200414002000B587B01020ADF884
:103C1000040003208DF8060010208DF8070001A98C
:103C20001E48FDF7A9FE01210803FFF709F9A020AE
:103C3000ADF8040003208DF8060018208DF8070069
:103C400001A91648FDF798FE0020ADF808004FF4D2
:103C50008270ADF80A000020ADF80C000220ADF82B
:103C60000E000120ADF810004002ADF81200102047
:103C7000ADF814000020ADF816000720ADF81800CC
:103C800002A90748FFF775FB01210548FFF75AFB1A
:103C900010210248FDF74DFF07B000BD00080140AC
:103CA0000030014010B5044600BF02210448FFF770
:103CB00055FB0028F9D021460148FFF758FB10BDFD
:103CC0000030014000B587B001214FF40470FFF7C8
:103CD000B7F80320ADF8180000208DF81B0006A9E6
:103CE0001B48FDF749FE0020019001208DF80800D7
:103CF0008DF809004FF4602003900020049001200B
:103D00008DF8140001A91348FCF710FB05230122CC
:103D10000A211048FCF732FB01210E48FCF7DAFAC1
:103D20000C48FCF787FB00BF0A48FCF7F5FA0028AF
:103D3000FAD10848FCF78EFB00BF0648FCF7D5FA1D
:103D40000028FAD100210348FCF779FB07B000BD39
:103D5000001001400024014010B5002000F06AF876
:103D60000020024908800249087010BD080F002099
:103D7000060F002010B5012000F05CF810BD10B552
:103D800000F07EF800F00AF8FFF73EFF00F048F878
:103D900000F09AF8FFF796FF10BD000008B5082064
:103DA000ADF8000010208DF8030003208DF802000C
:103DB00069460348FDF7E0FD012000F03BF808BD2F
:103DC000001801402DE9F04781460C46002500BF50
:103DD00000BF484600F03EF8A84610E001210F4819
:103DE000FCF72DFB00BF02210C48FCF78CFA0028E1
:103DF000F9D00A48FCF783FA054408F10108A04508
:103E0000ECD3B5FBF4F086B240F6C4107043071350
:103E1000484600F02BF83846BDE8F0870024014002
:103E200010B503480178002000F086F810BD0000AE
:103E30000D0F002010B5044624B108210448FDF7F9
:103E400078FE03E008210248FDF771FE10BD000076
:103E50000018014010B504460523012221460248FE
:103E6000FCF78CFA10BD00000024014010B5044698
:103E700000210248FCF7E3FA10BD000000240140D5
:103E800000B587B00620012117220023CDE90232B8
:103E9000CDE904101020802107230222CDE9001073
:103EA0000248FCF7FEFD07B000BD00000010014015
:103EB00010B5002000F036F80021024800F079FC2F
:103EC00010BD0000000400401FB501210220FEF7D4
:103ED000A7FF3C20ADF8080041F61F40ADF80400F4
:103EE0000020ADF80A00ADF8060001A90C4800F06A
:103EF00089FC1D208DF8000000208DF801000320B2
:103F00008DF8020001208DF803006846FEF7D4FC0E
:103F10000121034800F04DFC012000F003F81FBD13
:103F20000004004010B5044622460121014800F07B
:103F30005DFC10BD0004004070B505460C46102124
:103F40000948FDF7F4FD6420FCF7F8FF2846FFF769
:103F5000A9FE2046FFF7A6FE6420FCF7EFFF102124
:103F60000148FDF7E6FD70BD000801402DE9F0476E
:103F70004D480068007800F07F08B8F1000F0AD1C2
:103F800049480068407A00F0DF00474909684872F4
:103F90000020BDE8F087B8F1020F7DD142480068EB
:103FA000408818B940480068007908B10220F0E75D
:103FB000DFF8F8903C480068477927F080052C46E8
:103FC00039480068407910F0800F05D0384850F823
:103FD000240000F0300604E0354850F8240000F4D6
:103FE000405699F80000A84204D91EB12E48006836
:103FF000807A08B90220CCE717F0800F0ED02C4849
:1040000050F8240000F03000102841D1E0B2FCF755
:10401000B7FC3021E0B2FFF743FC39E0244850F808
:10402000240000F44050B0F5805F31D1CCB9214874
:1040300090F82C10E0B2FFF7BBFB1D4951F824109B
:1040400089B24BF68F7201EA020080F4805080F44E
:10405000005040F4004141F08001154A42F824101C
:1040600016E0E0B2FCF776FC114951F8241089B251
:104070004BF68F7201EA020080F4805080F4005009
:1040800040F4004141F08001094A42F8241000BF89
:1040900009490968486900E002E08047002078E7A4
:1040A00000BF022075E7000060120020A811002068
:1040B000005C0040AC1100206C12002010B50446DA
:1040C0002CB90120064909680882002010BD054965
:1040D000096808688047024800680A30F6E700006F
:1040E000601200206C12002010B5024606480068DD
:1040F000438A32B98888C01A034C24682082002081
:1041000010BD08681844FBE76012002010B5044693
:104110002CB90120064909680882002010BD054914
:10412000096888688047024800680C30F6E700009C
:10413000601200206C12002010B504462CB9022039
:10414000374909680882002010BD002035490880E1
:1041500033480068007810F07F0F23D13049096898
:10416000487A10F0200F06D02E49097841F002015C
:104170002C4A117005E02B49097801F0FD01294A0C
:10418000117010F0400F06D02649097841F0010166
:10419000244A117005E02349097801F0FE01214A03
:1041A000117036E01E480068007800F07F0001289A
:1041B00001D11C48C8E71A480068007800F07F0069
:1041C000022824D1164A1268517901F00F0011F02B
:1041D000800F0DD0144A52F8202002F03002102A2D
:1041E00014D1104A127842F001020E4B1A700DE001
:1041F0000D4A52F8202002F44052B2F5805F05D1FA
:10420000084A127842F00102064B1A7001E00020C1
:104210009AE70649096808698047024894E7000060
:10422000601200205A120020005C00406C12002036
:1042300010B50E480068C0780D494978884213DCF3
:104240000A480068807878B908480068808858B9BA
:1042500006480068C07805490968887205490968F8
:1042600048688047002010BD0220FCE76012002053
:10427000A81100206C12002010B507480068407A91
:1042800040F0200004490968487204490968C86977
:104290008047002010BD0000601200206C1200203A
:1042A0002DE9F04129480068467926F080073C4610
:1042B00026480068407910F0800F05D0244850F857
:1042C000240000F0300504E0214850F8240000F4F8
:1042D000405520480078A04208D91C480068408812
:1042E00020B91DB119480068807A10B90220BDE8D4
:1042F000F08116F0800F11D0154951F8241089B2C1
:1043000048F6BF7201EA020080F0100040F400415C
:1043100041F080010E4A42F8241011E00C4951F896
:10432000241089B24BF68F7201EA020080F48050AB
:1043300040F4004141F08001054A42F8241000BFDA
:1043400005490968886980470020D0E7601200208D
:10435000005C0040A81100206C12002010B5174B23
:104360001B68D978154B1B685879154B1B689A69DF
:104370009047044611480068807AE8B13CB90F487C
:104380000068007918B90D480068807808B10220EB
:1043900010BD8CB90B490968C86880470748006898
:1043A000407906490968C87204480068C078034922
:1043B000096808730020EBE70220E9E7601200209B
:1043C000641200206C12002008B50020114908700A
:1043D00004211148FDF7ADFB1048A02380220021E5
:1043E00000900846FCF72AFE4CF2E02014238022BD
:1043F000002100900846FEF717FAFCF773F8012039
:1044000004490870FEF70EFFFFF774F90120044914
:10441000087008BD1900002000140140F8000108D0
:104420001800002030B5002100220023354C2468FC
:10443000A0B200BF08E0334C403C54F82140A4B285
:10444000314D45F82140491C0829F4D340F48060DF
:104450002C4C206040F00100206020F00100206022
:1044600000BF284C241D246814F4806FF9D04FF647
:10447000FF34244D2D1D2C60002108E0224C54F8FF
:104480002140A4B21F4D403D45F82140491C082958
:10449000F4D340F008001B4C20602468A0B240F028
:1044A0000400184C2060194C2368226822F0030293
:1044B00042F001022260164C246844F00404144DBA
:1044C0002C60104C241D246814F4805F05D12C4608
:1044D000246824F004042C6013E04EF6FF74094DA8
:1044E0002D1D2C602C1F2468A0B220F008002C1F6A
:1044F0002060064C2360064C246824F00404044D1C
:104500002C6030BD405C0040803B002000700040CB
:1045100010ED00E010B500F0CBF927480088401CF2
:104520002549088008460088632807DD234800786D
:1045300008B100F065FB00201F4908802048007882
:10454000012836D110211F48FDF7E8FAB0B91E48FE
:104550000088B0F5FA6F05DA1B480088401C1A493C
:10456000088026E0002018490880184908700120BA
:10457000174908700020124908701AE01248008894
:1045800032280BDD00201049088001200F490870F7
:1045900000200F4908700A4908700AE000200A4903
:1045A00008800A4908700A49087005490870FDF733
:1045B00017F9FDF7EDFF10BD2A00002019000020BB
:1045C00030000020000C01402E00002031000020AF
:1045D0003400002070B501460A46B2F1807F01D355
:1045E00001201DE022F07F40401E4FF0E023586183
:1045F00058170F23002807DA1C07260E0A4C00F074
:104600000F052D1F665503E01C07250E074C25548A
:1046100000BF00204FF0E0239861072018610020C0
:1046200008B100BFFEE770BD18ED00E000E400E057
:1046300010B51348006840F00100114908600846B1
:104640004068104908400E494860084600680E4915
:1046500008400B4908600846006820F48020086084
:104660000846406820F4FE0048604FF41F00886050
:10467000FFF758F94FF000600449086010BD0000D2
:10468000001002400000FFF8FFFFF6FE08ED00E01A
:1046900010B540210148FDF74AFA10BD001801404D
:1046A00010B540210148FDF744FA10BD0018014043
:1046B00010B508210348FDF73AFA04210248FDF736
:1046C00036FA10BD000C01400014014010B5ADF5E4
:1046D000FB6D0121880700F078F8002844D0002104
:1046E0004FF0804000F065F821480088C0B32148B1
:1046F000007824282CD11E480088401E1D49085CE3
:10470000232825D10846B0F80100811E00234FF66A
:10471000FF721848401CFCF7AAF904461548B0F887
:104720000100401E1349085AA04211D10846B0F8B2
:104730000100001F80B2ADF80400BDF80420C91CC0
:104740000DF10600FBF710FD0B4901A8FCF760F91D
:10475000074801880748FBF720FD0020044908802E
:104760000121880700F022F80DF5FB6D10BD000057
:104770004C1100207E3300203614002010B501219A
:10478000074800F022F830B10121054800F00EF88A
:104790000120044908700121014800F007F810BD0C
:1047A00000040040060F002070477047CA43028291
:1047B000704721B1028842F00102028004E00288C1
:1047C0004FF6FE731A400280704730B50246002053
:1047D00000230024158A05EA0103958905EA0104EE
:1047E00013B10CB1012000E0002030BD10B51AB1AA
:1047F00083890B43838104E08389CC43A4B22340A3
:10480000838110BD002202881D4B98420ED01D4BA3
:1048100098420BD0B0F1804F08D01B4B984205D086
:104820001A4B984202D01A4B984204D14FF68F731C
:104830001A404B881A43174B984207D0164B9842A0
:1048400004D04FF6FF431A40CB881A4302808B886E
:1048500083850B8803850A4B98420BD0094B9842FD
:1048600008D00E4B984205D00D4B984202D00D4B0C
:10487000984201D10B7A038601238382704700009E
:10488000002C0140003401400004004000080040BA
:10489000000C0040001000400014004000400140A7
:1048A0000044014000480140092081078884704786
:1048B0000448006820B103480068401E01490860B0
:1048C000704700001C00002038B50446002017493E
:1048D0000870207838B1608900902389E288A18827
:1048E0006088FDF7A1FF207B38B120690090638BC1
:1048F000228BE18AA08AFCF7A1FB94F8300038B142
:10490000608F0090238FE28EA18E608EFCF73FFBBC
:10491000207F38B1206A0090A38D228DE18CA08C7D
:10492000FCF744FD01200149087038BD1900002042
:1049300038B5044600200E490870207838B16089E7
:1049400000902389E288A1886088FDF76DFF207BB5
:1049500038B120690090A38B228BE18AA08AFCF7F2
:1049600025FD01200249087000200249087038BD69
:10497000190000205F00002038B5044600201449CB
:104980000870207838B1608900902389E288A18876
:104990006088FDF749FF207B38B120690090A38B28
:1049A000228BE18AA08AFCF701FD94F8200038B13F
:1049B000606A0090E38DA28D618D208DFCF73EFB37
:1049C00000200449087001200149087038BD00002A
:1049D000190000205F00002038B5044600200E4971
:1049E0000870207838B1608900902389E288A18816
:1049F0006088FDF719FF207B38B120690090A38BF8
:104A0000228BE18AA08AFCF7D1FC002003490870C0
:104A100001200149087038BD190000205F00002006
:104A200038B50446002012490870207838B16089F2
:104A300000902389E288A1886088FDF7F5FE207B3D
:104A400038B120690090A38B228BE18AA08AFCF701
:104A5000ADFC94F8200038B1608D0090238DE28C7D
:104A6000A18C608CFCF793FA01200149087038BDD5
:104A70001900002038B5044600201249087020783B
:104A800038B1608900902389E288A1886088FDF7A9
:104A9000CBFE207B38B120690090A38B228BE18A6A
:104AA000A08AFCF783FC94F8200038B1606A00907B
:104AB000E38DA28D618D208DFCF7C0FA01200149A4
:104AC000087038BD1900002038B5044600200E4992
:104AD0000870207838B1608900902389E288A18825
:104AE0006088FDF7A1FE207B38B120690090A38B80
:104AF000228BE18AA08AFCF759FC01200249087048
:104B000000200249087038BD190000205F00002015
:104B100038B504460020374908702078A0B13648DF
:104B20000078012808D160680090E389A289618932
:104B30002089FCF73BFC07E060680090238AA2898B
:104B400061892089FCF732FC207DA0B12A480078D9
:104B5000022808D1A0690090638C228CE18BA08B85
:104B6000FCF724FC07E0A0690090A38C228CE18B69
:104B7000A08BFCF71BFC94F82800A0B11E4800781D
:104B8000032808D1E06A0090E38EA28E618E208E09
:104B9000FCF70CFC07E0E06A0090238FA28E618E88
:104BA000208EFCF703FC94F83C00E0B1124800783A
:104BB00004280CD1206C4A2500902B5B48252A5BE9
:104BC0004625295B4425285BFCF7F0FB0BE0206CB5
:104BD0004C2500902B5B48252A5B4625295B442504
:104BE000285BFCF7E3FB0020044908700120014921
:104BF000087038BD19000020600000205F00002010
:104C00001FB500200190029003900C48FDF778FF3B
:104C10000A488079009009484379027908A101A8DF
:104C200000F06AFE01A84CF2E0234FF6FF72022169
:104C300000900420FCF7BAFB1FBD0000FE0E002010
:104C4000253032643A253032643A2530326400002F
:104C500070B50546002400BF06E0054951F8240060
:104C6000FFF732FE601CC4B2AC42F6DB70BD000040
:104C7000A801002070B50546002400BF06E00549E4
:104C800051F82400FFF754FE601CC4B2AC42F6DBBE
:104C900070BD0000FC10002070B50546002400BF68
:104CA00006E0054951F82400FFF766FE601CC4B217
:104CB000AC42F6DB70BD00000807002070B5054669
:104CC000002400BF06E0054951F82400FFF784FEE8
:104CD000601CC4B2AC42F6DB70BD000018070020B7
:104CE00070B50546002400BF06E0064951F82400CF
:104CF000FFF796FE601CC4B2AC42F6DB012002490D
:104D0000087070BD880800205F00002070B505465F
:104D1000002400BF06E0054951F8240000F0A8F87F
:104D2000601CC4B2AC42F6DB70BD0000D00A0020AB
:104D300070B50546002400BF06E0054951F824007F
:104D400000F0C6F8601CC4B2AC42F6DB70BD0000D7
:104D50006410002070B50546002400BF06E0064937
:104D600051F82400FFF786FE601CC4B2AC42F6DBAB
:104D700001200249087070BD3C0900205F0000203E
:104D800070B50546002400BF18E00E480078401EAC
:104D9000C0EBC0000C4901EBC00050F8240058B132
:104DA00008490978491EC1EBC101074A02EBC1015C
:104DB00051F82400FFF788FE601CC4B2AC42E4DB6B
:104DC00070BD0000F20A00208003002070B5054687
:104DD000002400BF1CE010480078401E00EB80015A
:104DE00001EBC0000D4901EB800050F8240068B1D0
:104DF00009490978491E01EB810202EBC101074A0A
:104E000002EB810151F8240000F092F8601CC4B25A
:104E1000AC42E0DB70BD0000F20A0020940C0020E0
:104E200070B50546002400BF06E0054951F824008E
:104E300000F0A2F8601CC4B2AC42F6DB70BD00000A
:104E4000E00E002070B5054600240748007850B1F8
:104E500000BF06E0054951F82400FFF759FE601C29
:104E6000C4B2AC42F6DB70BD5F000020B801002088
:104E700038B50446002014490870207838B160899C
:104E800000902389E288A1886088FDF7CDFC207B13
:104E900038B120690090A38B228BE18AA08AFCF7AD
:104EA00085FA94F8200038B1606A0090E38DA28DF5
:104EB000618D208DFCF7C2F80020044908700120A4
:104EC0000149087038BD0000190000205F00002073
:104ED00038B50446002014490870207838B160893C
:104EE00000902389E288A1886088FDF79DFC207BE3
:104EF00038B120690090A38B228BE18AA08AFCF74D
:104F000055FA94F8200038B1606A0090E38DA28DC4
:104F1000618D208DFCF792F8002004490870012073
:104F20000149087038BD0000190000205F00002012
:104F300038B5044600200E490870207838B16089E1
:104F400000902389E288A1886088FDF76DFC207BB2
:104F500038B120690090A38B228BE18AA08AFCF7EC
:104F600025FA01200249087000200249087038BD66
:104F7000190000205F00002038B5044600200E49CB
:104F80000870207838B1608900902389E288A18870
:104F90006088FDF749FC207B38B120690090A38B25
:104FA000228BE18AA08AFCF701FA012002490870ED
:104FB00000200249087038BD190000205F00002061
:104FC00010B540F225510F4800F0B8F898B10D48DF
:104FD00000F070F9C4B20D2C08D00B48018800888D
:104FE000401C094A10800948445404E00120084943
:104FF00008700849087040F22551024800F083F813
:1050000010BD000000380140F20E00207412002094
:10501000F50E0020F40E002010B540F225512D4869
:1050200000F08CF8002853D02A4800F043F9C4B2AD
:10503000242C11D12848007870B901202649087025
:10504000002026490880084601880088401C234A21
:1050500010802348445407E0204801880088401C01
:105060001E4A10801E4844541C480088032809DB4F
:105070001B4840781A49897840EA0120801C194968
:10508000088002E0002017490880164800880028A0
:105090001EDD1248008813490988884218DB012068
:1050A000114908700D480088104908800B48028893
:1050B0000B490F48FBF758F8084801880848FBF7E8
:1050C0006CF80020044908700649088003490880EC
:1050D00010BD000000440040411200204212002098
:1050E000A03B002044120020401200204812002063
:1050F000A047002001F40072B2F5007F00D100BF8C
:10510000CA430280704710B500220023A1F5106445
:105110006A3C00D100BF0A1201249440A3B2DC43D0
:10512000048010BD21B1828942F40052828104E0E2
:1051300082894DF6FF731A408281704770B502462E
:105140000024002300250020A1F510666A3E00D14E
:1051500000BFC1F3421501F01F03012606FA03F355
:10516000012D02D19689334006E0022D02D1168A24
:10517000334001E0968A33400C12012606FA04F40B
:105180001688344013B10CB1012000E0002070BD3E
:10519000F0B503460024002600250020A1F5106785
:1051A0006A3F00D100BF1846C1F3421401F01F0648
:1051B000012707FA06F5012C01D10C3004E0022C7E
:1051C00001D1103000E014301AB107682F43076096
:1051D00002E00768AF430760F0BD00002DE9F0472B
:1051E00086B005460E460024A24600BFA146002711
:1051F000B08900B100BF2F462C8A4CF6FF700440E6
:10520000F08804432C82AC894EF6F3100440B08839
:1052100031890843718908430443AC81AC8A4FF655
:10522000FF400440B0890443AC8201A8FDF728FE8A
:105230001F48874202D1DDF810A001E0DDF80CA084
:10524000A88910F4004F08D00AEBCA0000EB0A103E
:1052500031684900B0FBF1F807E00AEBCA0000EB47
:105260000A1031688900B0FBF1F86420B8FBF0F057
:1052700004012009642101FB1089A88910F4004F62
:1052800008D0322000EBC900B0FBF1F000F00700BD
:10529000044308E0322000EB09106421B0FBF1F078
:1052A00000F00F0004432C8106B0BDE8F087000039
:1052B0000038014001468888C0F30800704710B5E7
:1052C0004FF48020FCF714FA10BD000000B585B043
:1052D00001210420FDF7B4FD10208DF813000120FA
:1052E0008DF812000002ADF8100004A91C48FCF76C
:1052F00043FB00224FF480711948FCF71CFC01218C
:105300000846FDF78DFD0920ADF8080040F2CF20DA
:10531000ADF804000020ADF80A001020ADF806003A
:1053200001A98006FFF76EFA012211469007FFF7E8
:105330005DFA1C208DF8000006208DF80100002089
:105340008DF8020001208DF803006846FDF7B4FADD
:1053500000214FF08040FFF72CFA05B000BD00009F
:105360000008014010B504462CB94FF4006105480F
:10537000FCF7DDFB04E04FF400610248FCF7D9FBC9
:1053800010BD00000020014010B5FEF733FBFEF712
:1053900059FB00F021F800F001F810BD10B50848E5
:1053A0000849086002200968087207480749086030
:1053B000074808490860054909680868804710BD22
:1053C0006850002060120020AC1100206412002000
:1053D000DC1100206C12002008B514208DF80000AC
:1053E00002208DF8010000208DF8020001208DF8C8
:1053F00003006846FDF760FA08BD000010B588B0EC
:10540000002466480068664908800846008800F461
:1054100000706449098808420AD04FF6FF505F497E
:10542000086061480078401C5F490870FDF72AFF5A
:105430005B48008800F400405A490988084201D0BE
:10544000FBF748F95648008800F480605549098800
:10545000084206D04FF6FF3050490860534948686B
:1054600080474F48008800F400504E4909880842A0
:1054700003D04DF6FF70494908604948008800F4A0
:10548000805048490988084206D04EF6FF704349CB
:1054900008600020FDF764FD4148008800F40060CA
:1054A0004049098808420CD04148007810B1FEF705
:1054B000B9FF02E00220FDF753FD4FF2FF703749BC
:1054C00008603748008800F480703649098808422F
:1054D00061D04FF6FF6031490860081D006810F484
:1054E000004F52D033480068401C324908600846DB
:1054F000006803284CD92948001F006810F0080FE5
:1055000046D12648001F006880B22B49086000245D
:1055100007E02248443850F8240080B24DF82400B7
:10552000641C082CF5D32448006840F0010022498F
:1055300008600846006880B21849091F08601E48C4
:10554000006820F001001C4908600846006880B22D
:105550001249091F086000BF1048006810F4806FEE
:10556000FAD04FF6FF300D490860002407E05DF8DF
:10557000240080B20949443941F82400641C082CF5
:10558000F5D300200B49086002E0002009490860BB
:105590000720FDF7E5FC08B010BD0000445C0040AA
:1055A000981100206A12002054110020AC11002034
:1055B00034120020581100205C11002010B5FFF7B4
:1055C0001DFF10BD0020064908604FF43F4005490B
:1055D0000880084600880249091F086000207047BB
:1055E000445C00406A1200202DE9F04104460E465A
:1055F000002504F07F00FCF7B3FA054604F07F00B5
:10560000FCF79EFA07462A4639463046FDF714FB5A
:105610002846BDE8F081000010B5FFF757FEFFF700
:10562000B3FE0248FBF7D2F910BD0000361400208B
:1056300000BFFEE7F0B5144604F1010C4FEA6C0719
:10564000DFF824C00CEB41033D460AE00678401C1D
:1056500090F800C046EA0C2223F8022B9B1C401C49
:105660006D1E002DF2D1F0BD0060004070B5044603
:105670000025212C08D112480068007800F07F0036
:1056800021280ED10F4D0CE0202C0AD10C480068C7
:10569000007800F07F00212800D10B4D20200B491D
:1056A00008700DB9022070BD0548006885610021B1
:1056B0000348006841820020A8470020F3E700006B
:1056C00060120020F9560008895800089C1100203B
:1056D00010B5044602492046FEF706FD10BD000045
:1056E0000812002010B5044602492046FEF7FCFCD3
:1056F00010BD000000120020014629B90820034A0D
:1057000012681082002070470148FCE760120020F8
:10571000A011002070B5054606480068C478042C26
:1057200001DD002070BD044800EBC4012846FEF7EF
:10573000DBFCF7E76012002010120020024600296F
:1057400001DD02207047012A01DD0220FAE7002076
:10575000F8E70000014608480068007800F07F0084
:10576000212807D1022901D100207047222901D127
:105770000020FAE70220F8E76012002010B50020B0
:105780003449096888723448C079324909684872D6
:10579000002030490968C872FDF7CCFF4FF4007152
:1057A0000020FEF7B1F810210020FEF779F8402123
:1057B0000020FDF7EBFF80210020FEF753F80020CA
:1057C000FBF7F4F8254890F82C100020FDF7F0FFC7
:1057D0000020FEF731F800210120FEF795F8C021E6
:1057E0000120FEF73FF820210120FEF759F80021A3
:1057F0000120FEF703F84FF4C0610220FEF784F8A1
:105800004FF480710220FEF72DF800210220FDF7F1
:10581000F5FF20210220FEF743F800210320FEF7C8
:1058200073F84FF488710320FDF7B0FF4021032087
:10583000FDF7BEFF4FF440510320FDF7DFFF0021CD
:105840000320FEF72DF80020FDF77CFF012004491E
:10585000086010BD601200205EA10108AC1100209C
:10586000301200200348817A11B10521024A1160EB
:1058700070470000685000203012002004200149C9
:105880000860704730120020014629B90820034AF9
:1058900012681082002070470148FCE76012002067
:1058A000A011002003480078202802D100200149DF
:1058B000087070479C1100207047000010B5FCF77D
:1058C00071F90020054909688872FDF7EDF9FFF7C5
:1058D00079FE00200249086010BD0000601200201F
:1058E000301200204FF0C041088070470149088005
:1058F00070470000000002600FB4084B10B504A907
:1059000002AA039800F01CF8044602A9002000F047
:1059100052FA204610BC5DF814FB0000B75D000889
:1059200002E008C8121F08C1002AFAD17047704768
:10593000002001E001C1121F002AFBD170470000C6
:105940002DE9FF4F8DB005460F460026E9E12528D9
:1059500079D100246D1CF74AA246A14601212B787B
:10596000203B01FA03F0104202D004436D1CF6E71D
:1059700028782A2810D06FF02F022878A0F1300163
:10598000092915D80AEB8A0102EB410144F002040F
:1059900000EB010A6D1CF0E757F804ABBAF1000FF9
:1059A00003DA44F40054CAF1000A44F002046D1C06
:1059B00028782E2817D115F8010F44F004042A285E
:1059C0000ED06FF02F022878A0F1300109290AD8F3
:1059D00009EB890102EB410100EB01096D1CF2E7C3
:1059E00057F8049B6D1C28786C280FD006DC4C28D7
:1059F00017D068280DD06A2814D104E0742810D07C
:105A00007A280FD10DE044F400140AE044F4801425
:105A100001E044F440146978814202D16D1C04F520
:105A200080146D1C95F800C0BCF16E0F2AD012DCFA
:105A3000BCF1630F3CD007DCBCF1000F76D0BCF1A9
:105A4000580F19D1A7E018E0BCF1640F6FD0BCF17A
:105A5000690F11D16BE0BCF1730F32D006DCBCF1E1
:105A60006F0F71D0BCF1700F06D196E0BCF1750FCD
:105A70006BD0BCF1780F69D06046DDE90F1290471A
:105A8000761C4DE1C4F30250022806D003280AD048
:105A9000042801CF0AD0066042E101CF4FEAE67147
:105AA000C0E900613CE101CF068039E1067037E1D1
:105AB00001CF8DF8000000208DF80100EB46012099
:105AC00003E057F804BB4FF0FF3061074FF00001CF
:105AD00002D40DE008F10101884649450FDA8045FE
